{
  "_format": "hh-sol-artifact-1",
  "contractName": "gasChallenge",
  "sourceName": "contracts/gasChallenge .sol",
  "abi": [
    {
      "inputs": [],
      "name": "getSumAfterOptimization",
      "outputs": [
        {
          "internalType": "uint256",
          "name": "",
          "type": "uint256"
        }
      ],
      "stateMutability": "view",
      "type": "function"
    },
    {
      "inputs": [],
      "name": "getSumOfArray",
      "outputs": [
        {
          "internalType": "uint256",
          "name": "",
          "type": "uint256"
        }
      ],
      "stateMutability": "view",
      "type": "function"
    },
    {
      "inputs": [],
      "name": "notOptimizedFunction",
      "outputs": [],
      "stateMutability": "nonpayable",
      "type": "function"
    },
    {
      "inputs": [],
      "name": "optimizedFunction",
      "outputs": [],
      "stateMutability": "nonpayable",
      "type": "function"
    }
  ],
  "bytecode": "0x6080604052604051806101400160405280600160ff168152602001600260ff168152602001600360ff168152602001600460ff168152602001600560ff168152602001600660ff168152602001600760ff168152602001600860ff168152602001600960ff168152602001600a60ff16815250600090600a610082929190610095565b5034801561008f57600080fd5b5061014c565b82600a601f0160209004810192821561011e5791602002820160005b838211156100ef57835183826101000a81548160ff021916908360ff16021790555092602001926001016020816000010492830192600103026100b1565b801561011c5782816101000a81549060ff02191690556001016020816000010492830192600103026100ef565b505b50905061012b919061012f565b5090565b5b80821115610148576000816000905550600101610130565b5090565b6103778061015b6000396000f3fe608060405234801561001057600080fd5b506004361061004c5760003560e01c806368b5f223146100515780637ce418941461005b57806380d2c80314610065578063ce59c6db14610083575b600080fd5b6100596100a1565b005b610063610101565b005b61006d610163565b60405161007a919061025e565b60405180910390f35b61008b6101d4565b604051610098919061025e565b60405180910390f35b60005b600a60ff168160ff1610156100fe576000808260ff16600a81106100cb576100ca610279565b5b602091828204019190066101000a81548160ff021916908360ff16021790555080806100f6906102e4565b9150506100a4565b50565b60005b600a60ff168160ff161015610158576000808260ff16600a811061012b5761012a610279565b5b602091828204019190066101000a81548160ff021916908360ff1602179055508080600101915050610104565b506000600181905550565b6000806000905060005b600a60ff168160ff1610156101cc5760008160ff16600a811061019357610192610279565b5b602091828204019190069054906101000a900460ff1660ff16826101b7919061030d565b915080806101c4906102e4565b91505061016d565b508091505090565b6000806000905060005b600a60ff168160ff16101561023d5760008160ff16600a811061020457610203610279565b5b602091828204019190069054906101000a900460ff1660ff1682610228919061030d565b91508080610235906102e4565b9150506101de565b508091505090565b6000819050919050565b61025881610245565b82525050565b6000602082019050610273600083018461024f565b92915050565b7f4e487b7100000000000000000000000000000000000000000000000000000000600052603260045260246000fd5b7f4e487b7100000000000000000000000000000000000000000000000000000000600052601160045260246000fd5b600060ff82169050919050565b60006102ef826102d7565b915060ff8203610302576103016102a8565b5b600182019050919050565b600061031882610245565b915061032383610245565b925082820190508082111561033b5761033a6102a8565b5b9291505056fea26469706673582212208106f8b394d95849581805866ff2bee7e7d2e6b1ce1d9e8a4f9b7182ebf0124b64736f6c63430008120033",
  "linkReferences": {},
  "deployedLinkReferences": {}
}